:060000000200690207D2B4
:03000B000207F3F6
:030013000207D40D
:03001B000207F5E4
:03002300020FCEFB
:03002B000207F7D2
:03003300020E5F5B
:03003B00020FCFE2
:03004300020100B7
:03004B000207D3D6
:03005300020100A7
:03005B000207D5C4
:030063000207D6BB
:0600C20075080002006653
:030066000203EDA5
:2001C10030000790E6A07401F022D2002290E6B8E0FFB40100E433FE90E6B9E0FDBDA81BF3
:2001E100C20090E680E0FD74084DF090000A120F7790E680E0FD74F75DF02290E6B9E0FDC5
:20020100BDB01290E6BAE0FCA3E08C08C20090E6A07480F02290E6B9E0FDBDA2028008BDAB
:20022100A902800302030EEF339201BDA903D38001C3920250047D5180027D508D0990E636
:20024100BAE0FBA3E0FC90E6BEE0F9A3E0FAC200E94A700302030DC3E99440EA9400500631
:2002610089008A05800478407D0030014590E6A0E0FD20E1F87525407526E77527008828A2
:200281007529008B238C24A2029204850982120400400790E6A07401F02290E6B57401F08D
:2002A10090E68AE4F090E68BE8F090E6A07480F0804890E6B57401F090E68AE4F090E68B69
:2002C100F090E6A07480F090E6A0E0FD20E1F8752E40752FE775300088317532008B2C8C91
:2002E1002DA20292058508337534A685098212046E400790E6A07401F0227D00E9C398F954
:20030100EA9DFAE82BFBED3CFC0202512290E6B9E0FEBEA30280030203E6EF33920390E6A6
:20032100BAE0FEA3E0FF90E6BEE0FCA3E0FDC200EC4D70030203E5C3EC9440ED9400500660
:200341008C028D0380047A407B0030034390E6A0E0FB20E1F88E128F138A1475150090E784
:2003610040C007C006C005C004C0021205CED002D004D005D006D00790E6B57401F090E651
:200381008AE4F090E68BEAF090E6A07480F0804290E6B57401F090E68AE4F090E68BF09082
:2003A100E6A07480F090E6A0E0FB20E1F88E828F837512407513E78C148D15C007C006C001
:2003C10005C004C0021205CED002D004D005D006D0077B00ECC39AFCED9BFDEA2EFEEB3FFF
:1F03E100FF0203312290E6A07401F02290E6007412F0C20A1207F93000FD1201CE80F8B9
:2010170012010002FFFFFF40B4041386000001020001090212000101008032090400000034
:20103700FFFFFF004D1067101710012910013210000000023B107768697465717561726B92
:20105700407768697465717561726B2E6F72670043797072657373204658322073657269D2
:0E107700657320626F6F746C6F616465720048
:20040000C007C006C005AF8230040CAE248E2AAD237E008D2B8004AE238E2AEF2FFFF582E8
:20042000120637503EA204E433FD7E0074012DF50AE43EF50B90002A75F04012066D50238D
:2004400074014FF582120637501985280C85290D8525828526838527F01206DB4002800783
:20046000D3800412064EC3D005D006D00722C007C006C005C004C003C002C001C000AF820B
:20048000E4F535F536EF2FFFF58212063740030205AC8533F005F0753B01753C00800BE5DB
:2004A0003B253BF53BE53C33F53CD5F0F2E4B5340474018001E4FAC3E5359531E53695320B
:2004C00040030205AC30050CAE2D8E37AD2C7E008D388004AE2C8E37A205E433FD7E007459
:2004E000012DF50AE43EF50B90003775F04012066D40030205ACC002AD3BAE3C8D128E13F2
:20050000852C82852D83C007C006C005C003C001C000120E61AA82AC83D000D001D003D0BD
:2005200005D006D007EDC39AF539EE9CF53AE531C39535FDE5329536FEC3ED9539EE953A1D
:20054000D002500DE531C39535F539E5329536F53AE535252EFCE536352FFDAE3085390AFF
:20056000853A0B8C828D838EF012066D503E12064E400280487E00EA7006C3EE9534500AE0
:200580008F8212063740030E80EDEEB53403C3802CE539252CF52CE53A352DF52DE539257E
:2005A00035F535E53A3536F5360204B712064EE531B53508E532B53603D38001C3D000D040
:0E05C00001D002D003D004D005D006D007220F
:2005CE00C085C084C086AC12AD13AE14AF15EE60010FEF602375AF0785829B85839A8C9ED1
:1F05EE008D9D75860090E67B75860190E67CE00586F00586DEF8DFF6D086D084D0852238
:20060D00C00790E678E0FF20E00510060280F390E678E0FF30E203C3800D30070990E67849
:20062D00E0FFA2E18001D3D00722C007AF8290E6787480F090E679EFF0D20712060DD00791
:20064D0022C00790E6787440F090E678E0FF20E6F890E678E0FF30E203C38001D3D0072255
:20066D00C007C006C005C004C003C002C001C000AD82AE83AFF0E50A450B7003D3803E7B94
:20068D00007C00EBB50A06ECB50B028024EB2DF8EC3EF98F02888289838AF0120FECF890E6
:2006AD00E679F0D20712060D50070BBB00D50C80D2EBB50A07ECB50B03D38001C3D000D079
:2006CD0001D002D003D004D005D006D00722C007C006C005C004C003C002C001C0008582CC
:2006ED000E85830F85F010E50C450D7004D30207C17401B50C06E4B50D028002800690E68D
:20070D00787420F090E679E07B007C0079007A00E9B50C07EAB50D030207A2C20712060D1E
:20072D0040030207B5740229F8E43AFFE8B50C0AEFB50D0690E6787420F0740129FEE43A61
:20074D00FFEEB50C2CEFB50D2875AF03759AE6759B7890E67B7440F0E0AFE0E9250EF8EA33
:20076D00350FFDAE1088828D838EF0EF1207D78018E9250EFDEA350FFEAF1090E679E0F893
:20078D008D828E838FF01207D709B900010A89038A0402071D90E678E0FF20E6F890E678F7
:2007AD00E0FF30E203C3800CEBB50C07ECB50D03D38001C3D000D001D002D003D004D0057F
:0507CD00D006D0072258
:06009800E478FFF6D8FD3C
:0107D20032F4
:0107D30032F3
:0107D40032F2
:200076007900E94400601B7A00901089780075923EE493F2A308B800020592D9F4DAF27576
:0200960092FFD7
:0107D50032F1
:0107D60032F0
:030100000208A54D
:03010400020FD017
:03010800020EBA2A
:03010C00020FAE31
:03011000020FEBF0
:03011400021010C6
:03011800020EAF25
:03011C000201B825
:03012000020EDBF1
:0301240002100EB8
:03012800020EDCE8
:03012C0002100FAF
:03013000021016A4
:030134000207F2CD
:030138000207F4C7
:03013C000207F8BF
:03014000020ED8D4
:030144000201B8FD
:030148000210089A
:03014C0002100995
:0301500002100A90
:0301540002100B8B
:0301580002100C86
:03015C0002100D81
:03016000020FD1BA
:030164000201B8DD
:030168000201B8D9
:03016C000201B8D5
:03017000020EDAA2
:03017400020EDD9B
:03017800020EFB79
:03017C00020EFD73
:03018000020EDE8E
:03018400020EFC6C
:03018800020EFE66
:03018C00020FC19E
:03019000020E60FC
:03019400020EB0A8
:03019800020EBB99
:03019C00020ED779
:0301A000020EAE9E
:0301A400020EB197
:0301A800020ED66E
:0301AC00020ED967
:0301B0000207F64D
:0301B40002101521
:0101B8003214
:1B07D70020F71130F6138883A88220F509F6A8837583002280FEF280F5F02221
:0107F20032D4
:0107F30032D3
:0107F40032D2
:0107F50032D1
:0107F60032D0
:0107F70032CF
:0107F80032CE
:2007F900C209753D00D2E890E668E0FF74084FF090E65CE0FF74014FF090E65D7401F0D2C2
:20081900AF90E680E0FF20E10990E680E0FF74024FF0300A0F90E680E0FF74084FF090003E
:200839000A120F7790E680E0FF74F75FF022AF82BF00028037BF01028036BF02028039BFF0
:2008590004028038BF06028037BF08028036BF80028019BF8102801CBF8202801BBF8402E9
:20087900801ABF86028019BF881E801890E6A02290E6A12290E6A22290E6A32290E6A422C6
:2008990090E6A52290E6A62290000022C022C0E0C0F0C082C083C007C006C005C004C00382
:2008B900C002C001C000C0D075D000C08675860090E6B9E0FFBF061B90E6B8E0FEB4010017
:2008D900E43390E6BAE0FDA3E0F5828D11120FC2020B28BF091C90E6B8E0FEB40100E4336F
:2008F900FE600F90E6BAE0FDA3E08D82120FD2020B28BF081090E6B8E0FEB40100E43312EA
:200919000EDF020B28BF0B2590E6B8E0FEB40100E433FE601890E6BCE0FDA3E090E6BAE0BD
:20093900FCA3E08C128D82120FAF020B28BF0A1990E6B8E0FEB40100E43390E6BCE0FDA301
:20095900E08D82120EBC020B28E4BF030104FE603A90E6B8E0FDB40100E433FD602D90E664
:20097900BAE0FCA3E0FDBC010EBD000BD20990E6A07480F0020B28BC0205BD0002800302A4
:200999000B2890E6A07480F0020B28EF703B90E6B8E0FDB40100E433A208E433FDA209E41E
:2009B9003325E0FC420590E740EDF090E741E4F090E6B504F090E68AE4F090E68B7402F029
:2009D90090E6A07480F0020B28EF702E90E6B8E0FDBD0103ED8001E490E740E4F090E741E1
:2009F900F090E6B504F090E68AE4F090E68B7402F090E6A07480F0020B28EE7008BF01023D
:200A19008003020ACB90E6B8E0FEBE02028003020ACB90E6BAE0FDA3E0FE4D6003020B28C8
:200A390090E6BCE0FDA3E08D82120847AD82AE83ED4E7003020B2890E6B9E0FCBC03188DE9
:200A5900828E83E0FC4304018D828E83ECF090E6A07480F0020B2890E6BCE0FBA3E08B82FE
:200A7900C006C005120EB2D005D0064003020B288D828E83E0FC5304FE8D828E83ECF09000
:200A9900E6BCE0FDA3E0740F5DFB7C00530580E4C423CDC423541F6DCD541FCD6DCDFEED7B
:200AB9004203EE420490E683EBF0E0FE74204EF0805DEF705490E6B8E0FFE4BF0201049049
:200AD900E6BCE0FEA3E08E82120847AE82AF83EE4F603C8E828F83E0FE530601E4BE000151
:200AF90004FEB40100E433FE90E740F090E741E4F090E6B504F090E68AE4F090E68B740274
:200B1900F090E6A07480F0800690E6B81201C1AF9174EF5FF59190E65D7401F0D086D0D094
:200B3900D000D001D002D003D004D005D006D007D083D082D0F0D0E0D02232AE82AF8375F0
:200B590044007545E07401B5422DE5437029AA44AB458E828F83E493F8A3E493F98812899F
:200B79001388828983E493F888147515008A828B831205CE020E447402B542028003020D4A
:200B99006374022EF557E43FF558855782855883E493F9C3E543994003020D63E4F547F5FD
:200BB9004874032EF551E43FF55274062EF553E43FF55474092EF555E43FF5567546008580
:200BD9005782855883E493F8C3E546984003020E44855182855283E493F8A3E493F9E546D8
:200BF90075F009A428F54BE935F0F54CE543B54631A844A945854B12854C13854B82854CFC
:200C190083E493FD8D14751500888289831205CE854B82854C83E493FD2544F544E4354584
:200C3900F545E543B5460474018001E4FD7404254BF55AE4354CF55BA847754900855A8269
:200C5900855B83E493FAC3E5499A4003020D5C855382855483E493FAA3E493FB880408ECB2
:200C790075F009A42AF54DEB35F0F54EED6039AA44AB45854D12854E13854D82854E83E4CE
:200C990093FC8C147515008A828B83C005C0001205CED000D005854D82854E83E493FC2517
:200CB90044F544E43545F5457404254DFAE4354EFB854859754A008A828B83E493F9C3E5A9
:200CD9004A995077C002C003855582855683E493F9A3E493FCAB590559EB75F007A429F511
:200CF9004FEC35F0F550D003D002ED6049C002C003A944AC45854F12855013854F8285509F
:200D190083E493FB8B1475150089828C83C005C003C002C0001205CED000D002D003D00549
:200D3900854F82855083E493FC2544F544E43545F545D003D002054A020CD08559480549F9
:200D5900020C5688470546020BD87403B5420474018001E4FD6023E543701FAB44AC45753F
:200D79001285751310901085E493FA8A147515008B828C831205CE020E44ED7003020E3D6B
:200D9900AC437D00EC24FFFAED34FFFB740B2EF582E43FF583E493F87900C3EA98EB6480EF
:200DB90089F063F08095F04003020E3D740C2EF582E43FF583E493FEA3E493FF1CBCFF0193
:200DD9001DEDCC25E0CC33FDEC2EF582ED3FF583E493FEA3E493FF8544828545837402F062
:200DF900A385824485834504F0A38582448583458E828F83E493FD60320EBE00010F8544A3
:200E190082854583EDF0A3858244858345E4F0A385824485834590E000E0FD0D0D90E000EC
:200E3900EDF080CC90E6A07401F0227E007FE090E6B57401F090E6B3EFF090E6B4EEF090C6
:060E5900E6A07480F02207
:041085000403090453
:010E5F003260
:010E6000325F
:200E6100E512451360467A01E51225E0F512E513334012F513E5829512E583951340030A0E
:200E810080E6C3E51313F513E51213F512C3E5829512F5F0E58395134005F58385F082C3C7
:0D0EA100E51313F513E51213F512DAE12243
:010EAE003211
:20009E007800E84400600A790075923EE4F309D8FC7800E84400600C7900903E00E4F0A3F4
:0400BE00D8FCD9FA97
:010EAF003210
:010EB000320F
:010EB100320E
:080EB20090E6A07480F0D32249
:010EBA003205
:010EBB003204
:1A0EBC0090E740E4F090E6B504F090E68AE4F090E68B04F090E6A003F0227E
:010ED60032E9
:010ED70032E8
:010ED80032E7
:010ED90032E6
:010EDA0032E5
:010EDB0032E4
:010EDC0032E3
:010EDD0032E2
:010EDE0032E1
:1C0EDF0090E740E53DF090E6B57401F090E68AE4F090E68B04F090E6A003F022AA
:010EFB0032C4
:010EFC0032C3
:010EFD0032C2
:010EFE0032C1
:200EFF00C3E5829407F582E5839400F5835009858282858282E58222600A74FE00001470CF
:200F1F00FDD583F6E5826003D582FD22AE82AF838E04EFCC25E0CC33FDEE2CFEEF3DFF90A4
:200F3F00E600E0FD20E419ED30E309EFC313CE13CEFF800CEFC313CE13CEC313CE13CEFFB2
:200F5F00C374149EE49F400122EE24ECFEEF34FFFF8E828F83020EFFAE82AF8390E600E09D
:200F7F00FD30E4067BB37C0B800EED30E3067BD77C0580047BE97C028E028F051EBEFF01B9
:0F0F9F001FEA4D60098B828C83120EFF80EA22BD
:010FAE003210
:120FAF00E512700790E6A07480F02290E6A07401F02209
:010FC10032FD
:0C0FC20085824285114390103F020B54C1
:010FCE0032F0
:010FCF0032EF
:010FD00032EE
:010FD10032ED
:190FD200E582FF6003BF010A753D0090E6A07480F02290E6A07401F02208
:010FEB0032D3
:0D00690075815B121011E5826003020066D4
:1C0FEC0020F71430F6148883A88220F507E6A88375830022E280F7E49322E02214
:0110080032B5
:0110090032B4
:01100A0032B3
:01100B0032B2
:01100C0032B1
:01100D0032B0
:01100E0032AF
:01100F0032AE
:0110100032AD
:0410110075820022C2
:0110150032A8
:0110160032A7
:00000001FF
