:060000000200690207ADD9
:03000B000207CE1B
:030013000207AF32
:03001B000207D009
:03002300020FA227
:03002B000207D2F7
:03003300020E3387
:03003B00020FA30E
:03004300020100B7
:03004B000207AEFB
:03005300020100A7
:03005B000207B0E9
:030063000207B1E0
:0600C20075080002006653
:030066000203EDA5
:2001C10030000790E6A07401F022D2002290E6B8E0FFB40100E433FE90E6B9E0FDBDA81BF3
:2001E100C20090E680E0FD74084DF090000A120F4B90E680E0FD74F75DF02290E6B9E0FDF1
:20020100BDB01290E6BAE0FCA3E08C08C20090E6A07480F02290E6B9E0FDBDA2028008BDAB
:20022100A902800302030EEF339201BDA903D38001C3920250047D5180027D508D0990E636
:20024100BAE0FBA3E0FC90E6BEE0F9A3E0FAC200E94A700302030DC3E99440EA9400500631
:2002610089008A05800478407D0030014590E6A0E0FD20E1F87525407526E77527008828A2
:200281007529008B238C24A2029204850982120400400790E6A07401F02290E6B57401F08D
:2002A10090E68AE4F090E68BE8F090E6A07480F0804890E6B57401F090E68AE4F090E68B69
:2002C100F090E6A07480F090E6A0E0FD20E1F8752E40752FE775300088317532008B2C8C91
:2002E1002DA20292058508337534A685098212046E400790E6A07401F0227D00E9C398F954
:20030100EA9DFAE82BFBED3CFC0202512290E6B9E0FEBEA30280030203E6EF33920390E6A6
:20032100BAE0FEA3E0FF90E6BEE0FCA3E0FDC200EC4D70030203E5C3EC9440ED9400500660
:200341008C028D0380047A407B0030034390E6A0E0FB20E1F88E128F138A1475150090E784
:2003610040C007C006C005C004C0021205CED002D004D005D006D00790E6B57401F090E651
:200381008AE4F090E68BEAF090E6A07480F0804290E6B57401F090E68AE4F090E68BF09082
:2003A100E6A07480F090E6A0E0FB20E1F88E828F837512407513E78C148D15C007C006C001
:2003C10005C004C0021205CED002D004D005D006D0077B00ECC39AFCED9BFDEA2EFEEB3FFF
:1F03E100FF0203312290E6A07401F02290E6007412F0C20A1207D43000FD1201CE80F8DE
:200FEB0012010002FFFFFF40B4041386000001020001090212000101008032090400000061
:20100B00FFFFFF0021103B10EB0F01FD0F010610000000020F107768697465717561726BC8
:20102B00407768697465717561726B2E6F72670043797072657373204658322073657269FE
:0E104B00657320626F6F746C6F616465720074
:20040000C007C006C005AF8230040CAE248E2AAD237E008D2B8004AE238E2AEF2FFFF582E8
:20042000120637503EA204E433FD7E0074012DF50AE43EF50B90002A75F04012066D50238D
:2004400074014FF582120637501985280C85290D8525828526838527F01206DB4002800783
:20046000D3800412064EC3D005D006D00722C007C006C005C004C003C002C001C000AF820B
:20048000E4F535F536EF2FFFF58212063740030205AC8533F005F0753B01753C00800BE5DB
:2004A0003B253BF53BE53C33F53CD5F0F2E4B5340474018001E4FAC3E5359531E53695320B
:2004C00040030205AC30050CAE2D8E37AD2C7E008D388004AE2C8E37A205E433FD7E007459
:2004E000012DF50AE43EF50B90003775F04012066D40030205ACC002AD3BAE3C8D128E13F2
:20050000852C82852D83C007C006C005C003C001C000120E35AA82AC83D000D001D003D0E9
:2005200005D006D007EDC39AF539EE9CF53AE531C39535FDE5329536FEC3ED9539EE953A1D
:20054000D002500DE531C39535F539E5329536F53AE535252EFCE536352FFDAE3085390AFF
:20056000853A0B8C828D838EF012066D503E12064E400280487E00EA7006C3EE9534500AE0
:200580008F8212063740030E80EDEEB53403C3802CE539252CF52CE53A352DF52DE539257E
:2005A00035F535E53A3536F5360204B712064EE531B53508E532B53603D38001C3D000D040
:0E05C00001D002D003D004D005D006D007220F
:2005CE00C085C084C086AC12AD13AE14AF15EE60010FEF602375AF0785829B85839A8C9ED1
:1F05EE008D9D75860090E67B75860190E67CE00586F00586DEF8DFF6D086D084D0852238
:20060D00C00790E678E0FF20E00510060280F390E678E0FF30E203C3800D30070990E67849
:20062D00E0FFA2E18001D3D00722C007AF8290E6787480F090E679EFF0D20712060DD00791
:20064D0022C00790E6787440F090E678E0FF20E6F890E678E0FF30E203C38001D3D0072255
:20066D00C007C006C005C004C003C002C001C000AD82AE83AFF0E50A450B7003D3803E7B94
:20068D00007C00EBB50A06ECB50B028024EB2DF8EC3EF98F02888289838AF0120FC0F89012
:2006AD00E679F0D20712060D50070BBB00D50C80D2EBB50A07ECB50B03D38001C3D000D079
:2006CD0001D002D003D004D005D006D00722C007C006C005C004C003C002C001C0008582CC
:2006ED000E85830F85F010E50C450D7004D302079C7401B50C06E4B50D028002800690E6B2
:20070D00787420F090E679E07B007C0079007A00E9B50C06EAB50D028056C20712060D50A5
:20072D0062740229F8E43AFFE8B50C0CEFB50D0890E6787420F08015740129FEE43AFFEE7A
:20074D00B50C0AEFB50D0690E6787440F0E9250EFDEA350FFEAF1090E679E0F88D828E838D
:20076D008FF01207B209B900010A89038A0480A090E678E0FF20E6F890E678E0FF30E2036E
:20078D00C3800CEBB50C07ECB50D03D38001C3D000D001D002D003D004D005D006D00722C4
:06009800E478FFF6D8FD3C
:0107AD003219
:0107AE003218
:0107AF003217
:200076007900E94400601B7A0090105D780075923EE493F2A308B800020592D9F4DAF275A2
:0200960092FFD7
:0107B0003216
:0107B1003215
:0301000002088072
:03010400020FA443
:03010800020E8E56
:03010C00020F825D
:03011000020FBF1C
:03011400020FE4F3
:03011800020E8351
:03011C000201B825
:03012000020EAF1D
:03012400020FE2E5
:03012800020EB014
:03012C00020FE3DC
:03013000020FEAD1
:030134000207CDF2
:030138000207CFEC
:03013C000207D3E4
:03014000020EAC00
:030144000201B8FD
:03014800020FDCC7
:03014C00020FDDC2
:03015000020FDEBD
:03015400020FDFB8
:03015800020FE0B3
:03015C00020FE1AE
:03016000020FA5E6
:030164000201B8DD
:030168000201B8D9
:03016C000201B8D5
:03017000020EAECE
:03017400020EB1C7
:03017800020ECFA5
:03017C00020ED19F
:03018000020EB2BA
:03018400020ED098
:03018800020ED292
:03018C00020F95CA
:03019000020E3428
:03019400020E84D4
:03019800020E8FC5
:03019C00020EABA5
:0301A000020E82CA
:0301A400020E85C3
:0301A800020EAA9A
:0301AC00020EAD93
:0301B0000207D172
:0301B400020FE94E
:0101B8003214
:1B07B20020F71130F6138883A88220F509F6A8837583002280FEF280F5F02246
:0107CD0032F9
:0107CE0032F8
:0107CF0032F7
:0107D00032F6
:0107D10032F5
:0107D20032F4
:0107D30032F3
:2007D400C209753D00D2E890E668E0FF74084FF090E65CE0FF74014FF090E65D7401F0D2E7
:2007F400AF90E680E0FF20E10990E680E0FF74024FF0300A0F90E680E0FF74084FF0900064
:200814000A120F4B90E680E0FF74F75FF022AF82BF00028037BF01028036BF02028039BF41
:2008340004028038BF06028037BF08028036BF80028019BF8102801CBF8202801BBF84020E
:20085400801ABF86028019BF881E801890E6A02290E6A12290E6A22290E6A32290E6A422EB
:2008740090E6A52290E6A62290000022C022C0E0C0F0C082C083C007C006C005C004C003A7
:20089400C002C001C000C0D075D00090E6B9E0FFBF061B90E6B8E0FEB40100E43390E6BA36
:2008B400E0FDA3E0F5828D11120F96020AFEBF091C90E6B8E0FEB40100E433FE600F90E64F
:2008D400BAE0FDA3E08D82120FA6020AFEBF081090E6B8E0FEB40100E433120EB3020AFE7E
:2008F400BF0B2590E6B8E0FEB40100E433FE601890E6BCE0FDA3E090E6BAE0FCA3E08C12E8
:200914008D82120F83020AFEBF0A1990E6B8E0FEB40100E43390E6BCE0FDA3E08D82120E8B
:2009340090020AFEE4BF030104FE603A90E6B8E0FDB40100E433FD602D90E6BAE0FCA3E0D6
:20095400FDBC010EBD000BD20990E6A07480F0020AFEBC0205BD00028003020AFE90E6A0EF
:200974007480F0020AFEEF703B90E6B8E0FDB40100E433A208E433FDA209E43325E0FC4241
:200994000590E740EDF090E741E4F090E6B504F090E68AE4F090E68B7402F090E6A07480BA
:2009B400F0020AFEEF702E90E6B8E0FDBD0103ED8001E490E740E4F090E741F090E6B5041C
:2009D400F090E68AE4F090E68B7402F090E6A07480F0020AFEEE7008BF01028003020AA17C
:2009F40090E6B8E0FEBE02028003020AA190E6BAE0FDA3E0FE4D6003020AFE90E6BCE0FD8E
:200A1400A3E08D82120822AD82AE83ED4E7003020AFE90E6B9E0FCBC03188D828E83E0FCFE
:200A34004304018D828E83ECF090E6A07480F0020AFE90E6BCE0FBA3E08B82C006C0051220
:200A54000E86D005D0064003020AFE8D828E83E0FC5304FE8D828E83ECF090E6BCE0FDA3F7
:200A7400E0740F5DFB7C00530580E4C423CDC423541F6DCD541FCD6DCDFEED4203EE420449
:200A940090E683EBF0E0FE74204EF0805DEF705490E6B8E0FFE4BF02010490E6BCE0FEA3C4
:200AB400E08E82120822AE82AF83EE4F603C8E828F83E0FE530601E4BE000104FEB4010007
:200AD400E433FE90E740F090E741E4F090E6B504F090E68AE4F090E68B7402F090E6A074D6
:200AF40080F0800690E6B81201C1AF9174EF5FF59190E65D7401F0D0D0D000D001D002D047
:200B140003D004D005D006D007D083D082D0F0D0E0D02232AE82AF837544007545E0740105
:200B3400B5422DE5437029AA44AB458E828F83E493F8A3E493F98812891388828983E49377
:200B5400F888147515008A828B831205CE020E187402B542028003020D3774022EF557E430
:200B74003FF558855782855883E493F9C3E543994003020D37E4F547F54874032EF551E46E
:200B94003FF55274062EF553E43FF55474092EF555E43FF556754600855782855883E4930C
:200BB400F8C3E546984003020E18855182855283E493F8A3E493F9E54675F009A428F54B5F
:200BD400E935F0F54CE543B54631A844A945854B12854C13854B82854C83E493FD8D14758E
:200BF4001500888289831205CE854B82854C83E493FD2544F544E43545F545E543B5460456
:200C140074018001E4FD7404254BF55AE4354CF55BA847754900855A82855B83E493FAC358
:200C3400E5499A4003020D30855382855483E493FAA3E493FB880408EC75F009A42AF54D1C
:200C5400EB35F0F54EED6039AA44AB45854D12854E13854D82854E83E493FC8C14751500B8
:200C74008A828B83C005C0001205CED000D005854D82854E83E493FC2544F544E43545F525
:200C9400457404254DFAE4354EFB854859754A008A828B83E493F9C3E54A995077C002C072
:200CB40003855582855683E493F9A3E493FCAB590559EB75F007A429F54FEC35F0F550D0ED
:200CD40003D002ED6049C002C003A944AC45854F12855013854F82855083E493FB8B147530
:200CF400150089828C83C005C003C002C0001205CED000D002D003D005854F82855083E4E6
:200D140093FC2544F544E43545F545D003D002054A020CA48559480549020C2A884705468A
:200D3400020BAC7403B5420474018001E4FD6023E543701FAB44AC4575125975131090106B
:200D540059E493FA8A147515008B828C831205CE020E18ED7003020E11AC437D00EC24FF68
:200D7400FAED34FFFB740B2EF582E43FF583E493F87900C3EA98EB648089F063F08095F0BE
:200D94004003020E11740C2EF582E43FF583E493FEA3E493FF1CBCFF011DEDCC25E0CC33DB
:200DB400FDEC2EF582ED3FF583E493FEA3E493FF8544828545837402F0A385824485834526
:200DD40004F0A38582448583458E828F83E493FD60320EBE00010F854482854583EDF0A3B4
:200DF400858244858345E4F0A385824485834590E000E0FD0D0D90E000EDF080CC90E6A022
:1F0E14007401F0227E007FE090E6B57401F090E6B3EFF090E6B4EEF090E6A07480F0229F
:04105900040309047F
:010E3300328C
:010E3400328B
:200E3500E512451360467A01E51225E0F512E513334012F513E5829512E583951340030A3A
:200E550080E6C3E51313F513E51213F512C3E5829512F5F0E58395134005F58385F082C3F3
:0D0E7500E51313F513E51213F512DAE1226F
:010E8200323D
:20009E007800E84400600A790075923EE4F309D8FC7800E84400600C7900903E00E4F0A3F4
:0400BE00D8FCD9FA97
:010E8300323C
:010E8400323B
:010E8500323A
:080E860090E6A07480F0D32275
:010E8E003231
:010E8F003230
:1A0E900090E740E4F090E6B504F090E68AE4F090E68B04F090E6A003F022AA
:010EAA003215
:010EAB003214
:010EAC003213
:010EAD003212
:010EAE003211
:010EAF003210
:010EB000320F
:010EB100320E
:010EB200320D
:1C0EB30090E740E53DF090E6B57401F090E68AE4F090E68B04F090E6A003F022D6
:010ECF0032F0
:010ED00032EF
:010ED10032EE
:010ED20032ED
:200ED300C3E5829407F582E5839400F5835009858282858282E58222600A74FE00001470FB
:200EF300FDD583F6E5826003D582FD22AE82AF838E04EFCC25E0CC33FDEE2CFEEF3DFF90D1
:200F1300E600E0FD20E419ED30E309EFC313CE13CEFF800CEFC313CE13CEC313CE13CEFFDE
:200F3300C374149EE49F400122EE24ECFEEF34FFFF8E828F83020ED3AE82AF8390E600E0F5
:200F5300FD30E4067BB37C0B800EED30E3067BD77C0580047BE97C028E028F051EBEFF01E5
:0F0F73001FEA4D60098B828C83120ED380EA2215
:010F8200323C
:120F8300E512700790E6A07480F02290E6A07401F02235
:010F95003229
:0C0F9600858242851143901013020B2845
:010FA200321C
:010FA300321B
:010FA400321A
:010FA5003219
:190FA600E582FF6003BF010A753D0090E6A07480F02290E6A07401F02234
:010FBF0032FF
:0D00690075815B120FE5E582600302006601
:1C0FC00020F71430F6148883A88220F507E6A88375830022E280F7E49322E02240
:010FDC0032E2
:010FDD0032E1
:010FDE0032E0
:010FDF0032DF
:010FE00032DE
:010FE10032DD
:010FE20032DC
:010FE30032DB
:010FE40032DA
:040FE50075820022EF
:010FE90032D5
:010FEA0032D4
:00000001FF
